:400000000080002011000000290700002907000008B5044B1A6803F53F5302331A6000F08BFB00BFFA46004010B5054C237833B9044B13B10448AFF300800123237010BD91
:400040005881FF1F00000000302C0000084B10B51BB108490848AFF300800848036803B910BD074B002BFBD0BDE81040184700BF000000005C81FF1F302C0000C880FF1F2A
:400080000000000008B5012000F01CFD01280CD10C4B1B7823B140220B4900F075FD04E040220A49012000F06FFD064B1B780133074A134003D5013B63F001030133014AC1
:4000C000137008BDCC80FF1FD481FF1F9882FF1F0100008008B5022000F0F4FC01280DD10D4B5B782BB140220C49022000F04CFD04E040220A49022000F046FD064B5B7831
:400100000133084A134003D5013B63F001030133014A537008BD00BFCC80FF1F5482FF1F9481FF1F0100008010B5002002F0C6F802F09EF8124C2070012002F0BFF802F0DC
:4001400097F8C0B260702278A378591F8A4209DB05339A4206DCE378591F884202DB0533984206DD07490A7048700222032000F00BFD034B1A789A705A78DA7010BD00BF19
:400180007481FF1F9081FF1F70B541F6FF734FF480420121084601F0AFFD064602F05CFC044602F059FC0546062302464021204602F06CFC062322464021284602F066FC65
:4001C000234A92B245F6A231204602F073FC214A92B245F6A231284602F06CFC2146304602F00CFC0121304602F0AEFB41F6FF734FF480420121084601F09CFD064602F004
:400200002BFC044602F028FC0546062302464021204602F03BFC062322464021284602F035FC0D4A92B245F6A031204602F042FC0A4A92B245F6A031284602F03BFC214629
:40024000304602F0DBFB0121304602F07DFB70BDD481FF1F9882FF1F5482FF1F9481FF1F08B50121002000F0DFFB00F015FC0028FBD0042000F062FD08BD00BF08B562B6B6
:40028000FFF782FFFFF7ECFF02F008F802F078F8214801F087FD214801F0ACFD204802F09BF801F009FD02F05BF901F013FD02F065F901F07DFF01F08FFF00230AE000221B
:4002C0001849CA541849CA541849CA541849CA540133DBB23F2BF2D900F0E4FB28B100F0DBFB10B1042000F029FD042000F0EAFB20B101220F49042000F0C8FC0D4B1B789B
:4003000023B901F0EFFC02F041F9E5E701F0E2FC02F034F9E0E700BF85000000D500000029010000D481FF1F9882FF1F5482FF1F9481FF1F9482FF1FFEE700BFF0B40022A5
:40034000174611E050F82760F3B226F0FF0608E001EB420511F812406D78A5550132013BDBB2002BF4D10137202FEBD9F0BC704708B50A46002102F052FC08BDF8B51C4B6A
:400380001B78DBB21B4E3478E4B21B4F3D78EDB203F00701194A11701B090132137044F00303337045F003033B700622144B1A704023144A1370023213700632137002323D
:4003C00013700422104B1A702023104A13700221053211700332137012220D4B1A700A2002F078FB3D70347044220A4B1A70F8BDCF010049F8460040F94600406E580040B0
:400400002D51004001590040205B0040235B0040585B00407658004008B502F0F5FB08BD38B500242F4B1C80502202331A7040F2572202331A80182202331A700C222A491A
:400440002A48FFF7E9FF0622294B1A705222A3F580731A70274B1B78DBB2274A13704FF4E162264B1A8041F25122023B1A8019250CE0234B1B7803F0010343EA440404F05E
:4004800003044FF4F07002F067FB013D0DB1032CEFD115B90320FFF74FFF1A4A4FF48073138007231370002317490B704820023108701370053213700222144B1A700422C3
:4004C0000A331A70124A137843F003031370013A137843F007031370013A137843F08003137038BD804000405C02004800410040004300400F010049A1460040224200404A
:4005000025420040044000400640004001400040A2430040012814D810B44000C0B2094B53F820101A18147C0A7822430A700130C0B253F820201844017C13780B43137084
:4005400010BC7047342C0000012816D810B44000C0B20A4B53F820101A18147C0A7822EA04020A700130C0B253F820201844017C137823EA0103137010BC7047342C000062
:40058000012808D8044B03EB800252691844017F13780B4313707047342C0000012809D8054B03EB800252691844017F137823EA01031370704700BF342C000038B572B6FE
:4005C0003E4A137843F00403137000240BE03C4863001A19510001440A46898C106AFFF7C7FE0134E4B2062CF1D936494FF09040FFF7A4FE0A25344B1D70022203F52173FA
:400600001A7004213148FFF7B3FE04213048FFF7AFFE04212F48FFF7ABFE04212E48FFF7A7FE04222D492E48FFF7F6FE04222D492D48FFF7F1FE2D4A137843F0020313708B
:400640001032137843F002031370294C237843F040032370A2F58632513A137843F010031370082223492448FFF7D6FE2A4623492348FFF7D1FE082222492348FFF7CCFE13
:40068000082222492248FFF7C7FE082221492248FFF7C2FE214A137843F008031370204D61232B70FFF7BCFE81232B70FFF766FE0E2221461B48FFF7AFFE38BDE846004040
:4006C000342C000084000048835800400076004008760040107600401876004068020048207600406C0200482876004003500140A043004030020048025100403802004849
:40070000F051004044020048125100404C0200482251004054020048325100402243004000480040B043004008B502F041FA03680C2B00D1FEE7FEE708B5104E104D16E068
:4007400029686B68AC68002204E051F8040B43F8040B0432A242F8D1E868002203E0002143F8041B04328242F9D11035013E002EE6D102F023FAFFF781FDFEE70100000010
:400780004C2D000008B5114A114B1A60114A136843F40073136000230AE0032B03D80E4A52F8231000E00D490D4A42F8231001332F2BF2D90B4B1A780B4B1A70084A0B4B31
:4007C0001A60FFF7FBFE02F0A5F808BD0004FA050CED00E014ED00E000000000290700000080FF1FBC760040C080FF1F08ED00E0F8B502F0B9F90546484A137843F001031C
:4008000013701032137843F0010313700127444B1F700226943B1E7002F5E2521B32137803F07F031370002002F054F93D4C237803F0F90323703C4A137803F0DF0313707A
:4008400023783B432370384602F044F9282002F041F9364B1A7802F07F021A701A7802F0BF021A70237833432370304602F032F9237843F00403237000232D4A13700132DD
:40088000137004E0FF212B4AD15401339BB2082BF8D9284602F06CF90721172002F038F92549172002F020F90721182002F030F92249182002F018F90721022002F028F91D
:4008C0001F49022002F010F90721032002F020F91C49032002F008F90721042002F018F91949042002F000F90721052002F010F91649052002F0F8F80021162002F008F9EA
:400900001349162002F0F0F807210C2002F000F910490C2002F0E8F8F8BD00BFA54300409D6000409443004012600040F851004084600040E482FF1F7112000069100000E6
:4009400095110000C5110000F911000035120000791200001D13000010B5254B18700023244A1370244A1370244A1370244A1370244A1370244A1370244A1370244B4FF4C6
:4009800000021A604FF080721A6004221A6008221A6010221A6020221A600F241D4804704FF4800018601C4B1A7011B1012906D00BE01A4A137803F0FE0313700AE0174ACE
:4009C000137843F00103137004E0144A137843F0010313700322124B1A708022203B1A70012002F0B9F804220E4B1A7010BD00BF0483FF1F0A83FF1F0883FF1F0983FF1F9C
:400A00000583FF1FF082FF1F0783FF1F8083FF1F00E100E09E6000409C60004009600040286000401260004038B504460D46064B1B7823B9FFF7DCFE0122034B1A702946D5
:400A40002046FFF789FF38BD7881FF1F00230A4A13700A4A13700A4A13700A4A13700A4A13700A4A13700A4A13700322094B1A708022203B1A7070470A83FF1F0883FF1FED
:400A80000983FF1F0583FF1FF082FF1F0783FF1F8083FF1F28600040014B1878704700BF0983FF1F064B1B7813F0FF0F05D0044B1878C0B200221A7070470020704700BFB5
:400AC0000883FF1F00EB40008300024A13445878704700BF1483FF1F431EDBB2072B0BD8064B00011A18185C00F00F00537843EA0020023880B2704700207047FC5F00405A
:400B000010B5044600EB400398001C4B1844037913F0800F03D00A0C4FF4804302E00B0C4FF48042601E03281ED8DFE800F0020910170021084601F08DFD114B185513E0F4
:400B40000021084601F068FD0D4B18550CE00021084601F043FD0A4B185505E00021084601F01EFD064B1855631EDBB2072B03D801F072FF034B185510BD00BF1483FF1F06
:400B8000D882FF1FE482FF1F431EDBB2072B6FD82DE9F04104460E46154600EB40029300344A1344DB889BB2C3F500739D4209D900EB400293002F4A1344DD88ADB2C5F553
:400BC0000075ADB204EB440293002A4A1344DB7843EA15232849220188188B54EBB24370264B1B5DFF2B03D131462046FFF788FF04EB440293001F4A134400225A705EB3AD
:400C000055B31F4F385D01F0BBFEDFF870801123FE22294618F8040001F038FF22010832184D2A4492B2B1B218F8040001F042FF18F80410385D01F0E1FE0121385D01F0EB
:400C400083FE24012B5D43F002032B552B5D03F0FD032B55BDE8F08104EB44029300054A13445A79D2B22401074B1A55BDE8F081704700BF1483FF1FFC5F0040E482FF1F72
:400C8000D882FF1F70600040FE5F00402DE9F843002944D0044615460F46002841D0082841D8FFF719FFA84203D22046FFF714FF05461F4B1B5DFF2B03D139462046FFF7C3
:400CC0001FFFDFF8748018F8040001F059FEDFF860901223FE22294619F8040001F0D6FE21010831134E314489B2BAB219F8040001F0E0FE19F8041018F8040001F07EFEE8
:400D0000012118F8040001F01FFE2401335D43F002033355335D03F0FD03335504E0002502E0002500E000252846BDE8F88300BFE482FF1F70600040D882FF1F431EDBB293
:400D4000072B0BD8420002449300054A134400225A705A79D2B20001024B1A54704700BF1483FF1FFE5F00401D4B19781D4A13889BB20B449BB2138000220FE01A494B6838
:400D80001B78DBB2194883544B6801334B600132D2B20B889BB2013B9BB20B80124B1B889BB20BB1072AE9D90D4B1B78DBB2082B00D05AB10E490B7883F080030B700F21A1
:400DC0000C4B197002210C4B197004E0022309490B7009490B70094B1A70014B1A7070478083FF1F8683FF1FF882FF1F006000400683FF1FF182FF1F0A83FF1F8183FF1F7D
:400E00000222074B1A708022064B1A700F22064B1A700023054A1370054A1370012070470A83FF1F0683FF1FF182FF1F8083FF1F8183FF1F08B5FFF797FF08BD10B4194B2E
:400E4000197801F00F010239C9B2174A13889BB20B449BB21380002011E0144A5468144B1B5CDBB223705368013353600130C0B20139C9B213889BB2013B9BB213800B4B3D
:400E80001B889BB20BB10029E7D10A4B19700A4A137883F0800313700B22084B1A7010BC704700BF296000408683FF1FF882FF1F006000408183FF1F0683FF1FF182FF1FA1
:400EC0000623064A1370064A13708022054B1A700022054B1A700120704700BF0A83FF1FF182FF1F0683FF1F8183FF1F064B9B6843B1054B9A6810709A6804490988518044
:400F000000229A60704700BFF882FF1F8683FF1F08B5134B1A78D2B21A701B78DBB213F0800F02D00F4A137008BD0220FFF7DEFF0D4B1B7803F06003202B05D0402B06D0E9
:400F400043B900F095FC06E001F016FE03E000F0F1FD00E0002010B90322024B1A7008BD28600040F182FF1F0060004008B5094B1978094A13889BB20B449BB21380002297
:400F8000064B1A700120FFF7B1FF0322044B1A7008BD00BF8083FF1F8683FF1F0A83FF1FF182FF1F08B50B4B1B78DBB2042B06D0062B07D0022B0BD1FFF7D8FF08BDFFF7B8
:400FC0003DFF08BD0320FFF791FF0322024B1A7008BD00BF0A83FF1FF182FF1F08B50022044B1A700120FFF781FF0322024B1A7008BD00BF0A83FF1FF182FF1F08B50B4B6D
:401000001B7813F0FF0F07D0084A137843F0800307490B70002313700022064B1A700120FFF764FF0322044B1A7008BDF082FF1F086000400A83FF1FF182FF1F08B5094B72
:401040001B78DBB2042B06D0062B07D0022B07D1FFF7F0FE08BDFFF7C1FF08BDFFF7CEFF08BD00BF0A83FF1F08B5284B1B78DBB213F0100F48D013F0800F0CD003F00F032B
:40108000012B16D1FFF744FF214B1B7813F0800F11D1012312E013F0400F03D0FFF7CEFF01230BE013F0200F07D0FFF77BFF012304E0002302E0002300E0002323B3134B84
:4010C0001B7813F0800F1FD1124B1B78124A12781343124A13701278D2B2934214D10C4B1B78DBB2094A127812F0800F07D1084B1B78DBB2054A1370137803F00F03044A28
:401100001278D2B29342EAD108BD00BF28600040F182FF1F0683FF1F8183FF1F296000400022064B1A80064B9B682BB1044A916800230B7092685380704700BF8683FF1F16
:40114000F882FF1F08B50F4B1B889BB213B9FFF757FE15E002220C4B1A7000220B4B1A70FFF7DEFF0A4AD179937943EA0123054A128892B2934201D2024A1380FFF7F4FD54
:40118000012008BDF882FF1F0A83FF1F0683FF1F006000400122094B1A700F3B9B7C084B1B7B03F00303934204D0054AD37B83F08003D3730122024B5A7370470B6000405A
:4011C0001483FF1F02220A4B1A700F3B93F82230084B1B7E03F00303012B04D0054AD37E83F08003D3760122024B5A76704700BF0B6000401483FF1F04220C4B1A700F3BE5
:4012000093F832300A4B93F8243003F00303012B06D0074A92F8273083F0800382F827300122034B83F82520704700BF0B6000401483FF1F08220C4B1A700F3B93F8423040
:401240000A4B93F8303003F00303012B06D0074A92F8333083F0800382F833300122034B83F83120704700BF0B6000401483FF1F08B5FFF7EBFB08BD70B4234B1C78E4B2F5
:4012800001233DE014F0010F37D01A4619011F48084481784078014011F0010F17D003EB4305A8001A4D2844007910F0800F0ED0164D1E01A85D00F0FE00A85503EB43057C
:4012C000A800134D28444579EDB21248855511F0020F0FD002EB4205A8000D4D2844007910F0800F06D102EB4205A800084D2844002545701201084881540133DBB264089B
:40130000002CBFD170BC70479F600040706000401483FF1FFE5F00407260004008B501F0B7F908BD30B4012341E0194623481A0184180C2585541F22627003EB43008200BE
:401340001F480244527912F0FF0F13D003EB430082001B480244127912F0800F04D01801184A024495700AE01801164A02440820907004E01801134A024480209070480097
:40138000084482000E480244D488E4B208010B4901448C71D088C0F30720C871D088C0B20871D288C2F307224A710133DBB2082BBBD9FF22044B1A7030BC7047706000405C
:4013C0001483FF1FFC5F00400A600040074B1A78074B03EBC2035B681A7C824204D9C0001030184440687047002070470483FF1F802C0000F8B5404B1B7813F0FF0F79D008
:401400003D4B18780138C0B2FFF7E0FF047AC2683A4B1878C0B200236AE01178884264D13749095CC9B25578A9425ED1917801F07F01D67806F00306DFF8C8E04D000D44C5
:40144000AF000EEB07054FF0000C85F803C092F802C085F804C092F803C00EF807C097882F8192F90250002D0DDA012E01D1072700E00D274E000E44B500224E35446F7165
:4014800001266E700CE0012E01D1052700E009274E000E44B5001B4E35446F7100266E70DFF868E00F010EEB07060125B57001FA05F529448D00134929440D89C5F3072531
:4014C0000EF807500D89EDB27570CE88F6B20E4D3D44AE71CE88C6F30726EE71CE88F6B22E71C988C1F30721697108320133DBB2A34292D3F8BD00BF0983FF1F0583FF1F34
:40150000F482FF1F1483FF1F70600040FC5F0040034B1A78034B03EBC2035868704700BF0483FF1F802C000008B5084B18780138C0B2FFF74BFF30B142681279023200EB8F
:40154000C203586808BD002008BD00BF0983FF1F2DE9F041002310E0684D5900CA189600AC190022AA55A270E2702281A272627034462C4462710133DBB2082BECD940B9B1
:401580000AE000225E49CA545E49CA540133DBB200E00023002BF4D05B4B1B7813F0FF0F00F0A980584B18780138C0B2FFF70EFF4368DB7913F0400F05D0544A137843F01C
:4015C0000103137004E0514A137803F0FE031370057A012464E0C16800235DE08A7802F07F02944255D1264604EB4407BA00434F3A44128992B28F88BA4207D204EB440E85
:401600004FEA8E02DFF8F4E0724417810A783C4FBA5CD2B24F78BA423BD191F802C0DFF8DCE07200324497000EEB070282F804C0CA780EF80720CA7802F0030291F9027031
:40164000002F13DA012A02D14FF0070801E04FF00D08DFF8A8E0720002EB060C4FEA8C07774487F8058001267E7012E0012A02D14FF0050801E04FF00908DFF880E0720047
:4016800002EB060C4FEA8C07774487F8058000267E7008310133DBB2AB429FD30134E4B2082C98D9C06800220CE0837803F07F0310F8084B03EB43039900104B19448C723F
:4016C0000132D2B2AA42F0D3FFF72EFF104B1860002101230BE0094D5A00D01884002C44E180228992B2114489B20133DBB2082BF1D9FFF717FEBDE8F08100BF1483FF1F9F
:40170000F482FF1F8483FF1F0983FF1F0783FF1F1083FF1F08B5154B1B7903F07F035A1ED2B2072A20D8590019448A0010490A44917841F0010191700021D170517841F022
:4017400002015170127912F0800F05D01B01094A1A448D23937004E01B01064A1A4489239370FFF7ADFB08BD002008BD006000401483FF1FFC5F0040274B1B7903F07F0324
:401780005A1ED2B2072A44D810B5590019448A0022490A44917801F0FE0191700021D1701F4C1801215C01F07F012154517801F0FD015170127912F0800F13D003EB430135
:4017C0008A0016490A445278D2B2012A04D1224602440C23937019E01B01114A1A440D23937013E003EB43018A000C490A445278D2B2012A05D11B01094A1A4408239370E7
:4018000004E01B01064A1A4409239370FFF758FB10BD0020704700BF006000401483FF1FFC5F004010B50E4B1C79E4B20D4B18780138C0B2FFF7CAFD43681B799C4201D99F
:40184000012C0AD8084A135DDBB208490B55044B9B78DBB21355012010BD002010BD00BF006000400983FF1FF482FF1F8483FF1F10B59A4B1B78DBB20021994A118013F003
:40188000800F79D0954A5278D2B20A2A00F21D81DFE812F036001B011B011B011B011B010B001B015F001B0167008C4BDB78DBB2012B09D1FFF72CFE4268894B5A60122282
:4018C0001A80FFF73FFC10BD844BDB78DBB2022B13D1824B9878FFF779FD002800F0F78042687F4B5A605A68D1785A68927842EA01221A80FFF726FC10BD01F03DF910BDF1
:4019000013F0030317D0022B40F0E38074490B80724B1B7903F07F0303EB43039A00714B1A449278D2B2704B1A7000225A704B60FFF708FC10BD6A4902230B806B4B1A7825
:40194000D2B2694B1A7000225A704B60FFF7FAFB10BD634B01221A80654A5A60FFF7F2FB10BD5F4A012313805C4B1B7961490B445360FFF7E7FB10BD584A5278013A0A2A0B
:4019800000F2A980DFE802F047A774A706A7A7A70EA72B00514B9B78DBB2574A1370FFF78FFA10BD4D4B9B7803F0FF041BB1601EC0B2FFF70BFD04B110B9002C40F0A68068
:4019C0004B4B1B78DBB29C4206D0494B1C7001204A4B1870FFF7BCFDFFF772FA10BDFFF721FF002800F094803C4A1379DBB21279D2B243490A70434AD25CD2B23D49CB5C5F
:401A0000DBB29A4204D001223C4B1A70FFF7F2FCFFF756FA10BD03F00303012B17D04BB1022B77D12D4B9B7813F0FF0F74D1FFF7A3FE10BD294B9B78DBB2012B6ED12B4A88
:401A4000137803F0FD031370FFF73AFA10BD234B1B7913F0FF0F63D1204B98781B79DBB22949CA5C22EA0002CA54FFF729FA10BD03F00303012B17D04BB1022B52D1174B27
:401A80009B7813F0FF0F4FD1FFF744FE10BD134B9B78DBB2012B49D1144A137843F002031370FFF70DFA10BD0C4B1B7913F0FF0F3ED10A4B98781B79DBB21349CA5C22EA0C
:401AC0000002CA54FFF7FCF910BD002010BD002010BD002010BD002010BD00BF00600040F882FF1F1483FF1F7C81FF1F0783FF1F0983FF1FF482FF1FF082FF1F0883FF1F74
:401B00000583FF1F8483FF1F0C83FF1F002010BD002010BD002010BD002010BD002010BD002010BD002010BD002010BD002010BD002010BD044B1B7813F0800F01D0024B59
:401B40005B780020704700BF0060004008B50A280FD00C2802D0082806D102E04FF4805209E04FF4807206E0002000F0B1FF002201E04FF480620021094B198042F21073D9
:401B800003FB02F303F6C413064A82FB0302DB17C3EBE223044A1360044B198008BD00BF8883FF1FAD8BDB688C83FF1F9283FF1F10B500F0D9FF04461E4A137843F00203B8
:401BC00013701032137843F0020313701A3A137843F0010313701032137843F00103137002F5AA521A32137843F0030313700422114B1A70013B1A7842F040021A701A78CA
:401C000002F0FC021A70C822053B1A700222A3F59753123B1A70094A137843F0080313700A2000F057FF0122054B1A60204600F09FFF10BDAB4300400E5900402F5B00409D
:401C400080E200E010B504460A280DD00C2802D0082804D101E0C42207E0442205E0002000F036FFC42200E08422034B1A702046FFF76CFF10BD00BF0A59004008B5102094
:401C800000F00EFD0721002000F042FF0749002000F02AFF064A137843F0060313700820FFF7D0FF0022034B1A8008BDF51C0000095900409083FF1F08B5054B1B7823B971
:401CC000FFF7DCFF0122024B1A70FFF771FF08BD7E81FF1F024A137843F001031370704708590040024A137803F0FE031370704708590040704700BFF0B583B016461F4633
:401D00000B4C042525700023019300932B460A460146284600F07EFE3A463146207800F053FE0221207800F03DFE207803B0F0BDCE80FF1FF0B583B016461F460B4C05252E
:401D400025700023019300932B460A460146284600F060FE3A463146207800F035FE0221207800F01FFE207803B0F0BDCF80FF1F014B1B689865704708ED00E04001C0B2D6
:401D8000014B1870704700BF06E400E04022014B1A60704700E100E04022014B1A60704780E100E010B50446FFF7F6FF2046FFF7DFFF0720FFF7E2FFFFF7E8FF10BD00BFB4
:401DC000014B1B68D865704708ED00E04001C0B2014B1870704700BF07E400E08022014B1A60704700E100E08022014B1A60704780E100E010B50446FFF7F6FF2046FFF7ED
:401E0000DFFF0720FFF7E2FFFFF7E8FF10BD00BF10B59DF80840012C51D1013809282ED8DFE800F0052D2D052D2D0F192D230F2B03D92548007840B222E02448007840B24A
:401E40001EE00F2B03D92248007840B218E02148007840B214E00F2B03D91F48007840B20EE01E48007840B20AE00F2B03D91C48007840B204E01B48007840B200E0002097
:401E800001EB401101FB02F1C90B8AB20D2B0BD8C3F10E0289B211418AB2611E124800EB810101338B7005E0631E0F4901EB83030F219970013C0C4B23F8242010BD002080
:401EC00000F006FE10BD00BF180100491C010049190100491D0100491A0100491E0100491B0100491F0100498081FF1FF8B5074600F03AFE06460D4D2B7843F003032B70D8
:401F00000B4C237843F0030323700A4B1F70032000F0E0FD2B7803F0FC032B70237803F0FC032370304600F023FEF8BDF8460040F9460040925800400022314B1A7101280A
:401F40005DD170B538222F4B1A70042202331A70062201331A70002401331C7001331C700F2201331A7002331C7001331C7001331C7001250A331D70142203F527631A70DF
:401F8000052601331E70162201331A7001331C70442203331A70482201331A7001331D7002331D70112201331A70192201331A70972201331A705220FFF798FF5822124B76
:401FC0001A7001331C7005331E70022201331A7001331C7001331C70204600F07BFB33220A4B1A602946304600F098FB2946952000F018FC06491D2000F076FD70BD70471C
:402000008081FF1F004E0040945800409483FF1F99220000F0B583B0284D01272F70284E00247471102000F067FB102000F0E8FB07211D2000F06CFD0422224B1A700133B0
:402040001C7007331C70204A137843F0180313701E4B1C7003F2F5231C7001331C700A22A3F209331A7001331C7002331C70122205331A70132201331A7004331C70142210
:40208000A3F68C231A70009708234FF4004248F66B510220FFF7BCFE2B78013B06EB83039A780B4B1A702B78013B36F82320094B1A802878FFF740FF03B0F0BDD080FF1F12
:4020C0008081FF1F96580040075B0040935800400E4E00400C4E004070B500F045FD06462A4B1B782A4B1A7842F001021A701A7842F010021A7010331A7842F001021A702B
:402100001A7842F010021A70224D2B7843F002032B70214C237843F0020323701F4A137843F003031370032000F0D4FC2B7803F0FD032B70237803F0FD032370184A1378B5
:4021400043F0060313707A22164B1A70164A137843F0040313701032137843F0040313700F3A137843F0010313701032137843F0010313704FF000530C4A1360A2F5C072AE
:402180001360304600F0F4FC70BD00BFD080FF1FAA430040F8460040F9460040915800407758004082580040A143004080E200E008B5084B9B794BB9064BDB7913F0FF0F3C
:4021C00001D1FFF727FF0122024B9A71FFF784FF08BD00BF8081FF1F024A137843F0010313707047004E0040024A137803F0FE0313707047004E0040094B1B7913F0FF0FF8
:4022000003D0074B5B79DBB203E0064B1B7803F00103012B01D00028EED01846704700BF8081FF1F014E00400C4B1B7803F003030B4A107840B2022B02D10A4B1B7803E078
:40224000032B01D1084B1B78084B1B7913F0FF0F02D00022054B5A71704700BF144E0040104E0040114E0040124E00408081FF1F10B5084A137843F004031370FFF7ACFF5D
:402280000020FFF7B9FFFFF7CFFF0446FFF7ACFF204610BD014E0040704700BF10B5002404E02046FEF750F90134E4B2012CF8D9FF22014B1A7010BDD180FF1F10B50446ED
:4022C000054B1878FF2801D0FEF73EF92046FEF721F9014B1C7010BDD180FF1F024A137843F08003137070477A640040014B1870704700BF8C640040014B1878704700BFA0
:402300006C64004008B50146014800F019FC08BD2A640040024B186820F07F40704700BF4A64004008B50146014800F009FC08BD0A64004008B501E0FFF7ECFFFFF7DCFFA3
:4023400010F0080FF8D108BD10B50B4C2046FFF7D9FF2046FFF7E6FF00F006FC074A137843F01003137000F003FCFFF7E3FF0120FFF7BCFF10BD00BFFF9E24009C6400406A
:4023800008B5054B1B7823B9FFF7DEFF0122024B1A70FFF7A3FF08BD8C81FF1F014B1B681866704708ED00E04001C0B2014B1870704700BF08E400E04FF48072014B1A60AF
:4023C000704700BF00E100E04FF48072014B1A60704700BF80E100E010B50446FFF7F4FF2046FFF7DBFF0720FFF7DEFFFFF7E4FF10BD00BF08B50A280FD00C2802D0082863
:4024000006D102E04FF4805209E04FF4807206E0002000F05DFB002201E04FF480620021094B198042F2107303FB02F303F6C413064A82FB0302DB17C3EBE223044A13607A
:40244000044B198008BD00BF9E83FF1FAD8BDB689883FF1F9C83FF1F38B500F085FB04461E4A137843F0010313701032137843F0010313701A3A137843F002031370103209
:40248000137843F00203137002F5AA521232137843F0030313700422114B1A70013B1A7842F040021A701A7802F0FC021A70C822053B1A700225A3F597530C3B1D70094AF0
:4024C000137843F0080313700A2000F003FB064B1D60204600F04CFB38BD00BFAB43004006590040275B004080E200E010B504460A280DD00C2802D0082804D101E0C42298
:4025000007E0442205E0002000F0E2FAC42200E08422034B1A702046FFF76CFF10BD00BF0259004008B5102000F0EAF90721012000F0EEFA0749012000F0D6FA064A13785E
:4025400043F0060313700820FFF7D0FF0022034B1A8008BD9D25000001590040A083FF1F08B5054B1B7823B9FFF7DCFF0122024B1A70FFF771FF08BD8D81FF1F024A1378CE
:4025800043F001031370704700590040024A137803F0FE031370704700590040704700BFF0B583B016461F460B4C032525700023019300930A460146284600F02BFA3A466C
:4025C0003146207800F000FA0221207800F0EAF9207803B0F0BD00BFD280FF1FF0B583B016461F460B4C022525700023019300930A460146284600F00DFA3A4631462078AC
:4026000000F0E2F92946207800F0CCF9207803B0F0BD00BFD380FF1FF0B583B016461F460B4C012525700023019300930A460146284600F0EFF93A463146207800F0C4F9DD
:402640000221207800F0AEF9207803B0F0BD00BFD480FF1FF0B583B016461F460B4D00242C700194009423460A460146204600F0D1F93A463146287800F0A6F902212878FC
:4026800000F090F9287803B0F0BD00BFD580FF1F024B1878C0F38010704700BF8F450040034B1A7800F0F80010431870704700BF0241004010B5002404E02046FDF76EFF95
:4026C0000134E4B2012CF8D9FF22014B1A7010BDD680FF1F10B50446FFF7ECFF2046FDF74FFF014B1C7010BDD680FF1F014B188880B2704780400040034B1A7800F0F8008B
:4027000010431870704700BF82400040024B187800F00700704700BF8240004070B505460E46FFF7F3FF0446FFF7E0FFA84256D02B4B1B7803F0010294B900B185B938B9F3
:40274000284B1D80284A137803F0BF03137070BD254A137843F040031370224B1D8070BD22B3002321490B7001240F310C7004310B700C390B7803F07F030B701A4B1B789F
:4027800013F0080F00D08DB9194B18800721013B1970164B1B7813F0010FFAD110490B7803F0FE030B700021104B19700C4B1B7813F0010F0DD00E4B1D800EB1032200E04A
:4027C00001220A4B1A70094B1B7813F0010FFAD170BD044B1D8002490B7813430B7070BDA243004080400040824000400140004002400040014B188880B2704708410040A5
:40280000034B1A7800F0F80010431870704700BF0A410040024B187800F00700704700BF0A41004070B504460D46FFF7F3FF0646FFF7E0FFA04257D02C4B1B7803F0040347
:40284000DAB296B900B184B938B9294B1C80294A137803F0BF03137070BD264A137843F040031370224B1C8070BD22B3002322490B70042613310E7004390B7008390B78BB
:4028800003F07F030B701B4B1B7813F0080F00D08CB91A4B18800721013B1970164B1B7813F0010FFAD111490B7803F0FB030B700021114B19700D4B1B7813F0040F0DD017
:4028C0000E4B1C800DB1032200E001220A4B1A70094B1B7813F0010FFAD170BD044B1C8002490B7813430B7070BD00BFA1430040084100400A41004001400040024000407B
:40290000034B1A7800F0F80010431870704700BF064100400B4A7F2313708021517007E0DA0002F1804202F5F042013BDBB21370002BF5D1DB0003F1804303F5F043002260
:402940001A707047D880FF1F172815D831B103010A495A5C42F020025A5405E0030107495A5C02F0DF025A540001044A835C43F00103835400207047012070471070004068
:4029800017280BD80001064BC25C02F0FE02C254C25C02F0DF02C25400207047012070471070004017280BD80001064A835C03F0F103490001F00E0119438154002070477D
:4029C000012070471070004041F6FF73994201D14FF4005141F6FF739A4201D14FF40052172808D8C00000F1804000F5EC408180C280002070470120704700BF172805D8EB
:402A0000034B03EB0010417200207047012070471070004017281BD810B4C00000F1804404F5EC44D201D2B201F07F01114321709DF804201201D2B203F00F031343637069
:402A40009DF8083003F00F03A3700020E07001E00120704710BC704710B500F085F80A4B5B78182B0BD9084A1478013B5370E30003F1804303F5F0431B78137000E0FF2489
:402A800000F076F8204610BDD880FF1F10F0800F0CD111F4704F0BD1C00000F1804000F5F04001808270C37000207047012070470120704710F0800F08D1C00000F1804067
:402AC00000F5F0408180C280002070470120704701BE704708B5034B1B7A00FB03F000F03BF808BDE080FF1F70B504460E46074B1D681F2802D90020FFF7EAFF04F01F0483
:402B0000103455F8240045F8246070BD08ED00E038B504460D46072902D90020FFF7D8FF1F2C02D90020FFF7D3FF04F01F0000F1604000F564406D01EDB2057038BD00BF1A
:402B4000CBB20370C1F307234370C1F307418170704700BF000000000230800803D000BF01380046FCD17047EFF3108072B6704780F31088704700BF0B4B1B7803F003036E
:402B8000012B02D0022B03D00CE0074B1B7909E0054B1B7903F07F0303EB43039A00034B1A44937A00207047006000401483FF1F014B1868704700BF5081FF1F0E4B70B5A1
:402BC0001E460E4C0025E41AA410A54204D056F8253098470135F8E700F0A6F8084B094C1E46E41AA4100025A54204D056F8253098470135F8E770BD342D0000342D00003C
:402C0000342D00003C2D000010B5431E0A44914204D011F8014B03F8014FF8E710BD03460244934202D003F8011BFAE770470000000000003D510040005B00400D51004077
:402C4000005B004001104040035B00402443004040000000405100403000C0510040100000000140001000140140000800400140000A004C014000020050014020000000C8
:402C800001000000882C000001000000142D0000000000000000000001000000A02C000001000000E42C000004000000C42C0000000000000000000000000000C02C00005F
:402CC00000000000000081024000000000008202400000000000830208000000000004020800000009022E0001010080190904000004000000000705810240000007058270
:402D000002400000070583020800000705040208000000001201000200000008B40451800000000000014300F8B500BFF8BC08BC9E4670474D00000085070000F8B500BFF0
:402D4000F8BC08BC9E46704729000000602D0000C880FF1F900000005002000000000000000000000101FFFF01FFFFFFFFFFFF007F8000003F0000000000E02EC05D0000DE
:402D80001800000000366E010000000000000000000000000000000000000000000000000000000000000000262D0000000000000000000000000000000000000000000003
:402DC00000000000000000000000000000000000000000000000000000000000000000000000000000000000F080FF1F000000000000000000000000000000000000000045
:402E00000000000000000000000000000000000000000000000000000000000000000000000000000000000000000000000000000000000000000000000000000000000092
:402E40000000000000000000000000000000000000000000000000000000000000000000000000000000000000000000000000000000000000000000000000000000000052
:402E80000000000000000000000000000000000000000000000000000000000000000000000000000000000000000000000000000000000000000000000000000000000012
:402EC00000000000000000000000000000000000000000000000000000000000000000000000000000000000000000000000000000000000000000000000000000000000D2
:020000040003F7
:0200000480007A
:400000000145004001520040015B004001640040010101400103014004040140030501400207014002090140280A01400B0B0140200C0140120D0140010F01400215014076
:400040000117014001190140021B01400A4001400F41014007420140054301400444014003450140094601400A4701400948014003490140044C0140034D01400350014036
:40008000045101407E027C4027218C0DE220EA0138803E4058045F011801EA08EE10B401EE01EC10EE01405449FF4AFF4BFF4F01501852805A045B045D995F0160406240C8
:4000C00064406540668068806A806C806E80C054C9FFCAFFCBFFCD83CE03CF01D018DA04DD09DF01E040E240E440E540E680E880EA80EC80EE804280468048024C0270020A
:400100009A80A402AF40D081D218EE1012012201300136013E01405445EC4602480749FF4AFF4BFF4D834E034F015018540158045A045B045C095D995F01604062406440DB
:400140006540668068806A806C806E800C0216801E801F4046804C024D044F0156805D045E805F01C210C410D080D210D6D0EA01E220EC20EE08EE08EE08EC20EE081B0106
:400180001F0832013320374439808A01C630CCF0CE1033883680370839083F409F44A280A308A720A940AE80AF01CCF0CE60EA80950897409F40A7A0AF08B704EA1095089E
:4001C0009740A7A0AB40EE807C018B10DE01E20494019721AB011A80461094019721A502B502C608D001EE080B210D020F0297219E10A502AA40B401C20FEC08210423403D
:40020000270195089740A720AF80C860EE10AF20B301EE101F809E10AF01C601AF80B210EC0401010D010F0100AF01FA0203110A0000000000005400400000000000000062
:40024000C0000000000B0B00000000000000000000000600000000000000010010001801100018019500180100040000000500000000000000000000000000000000000098
:40028000000000000000000000000000000000000000000000000000000000000000000000000000000000000000000000000000000000000000000000000000000000003E
:4002C00000000000000000000000000000000000000000000000000000000000000000000000000000000000000000000000000000000000000000000000000000000000FE
:4003000000000000000000000000000000000000000000000000000000000000000000000000000000000000000000000000000000000000000000000000000000000000BD
:40034000000000000000000000000000000000000000000000000000000000000000000000000000000000000000000000000000000000000000000000000000000000007D
:0200000490006A
:0400000000004005B7
:0200000490105A
:04000000BC90ACAF55
:0200000490303A
:02000000E88591
:0200000490402A
:4000000000000000000000000000000000000000000000000000000000000000000000000000000000000000000000000000000000000000000000000000000000000000C0
:400040000000000000000000000000000000000000000000000000000000000000000000000000000000000000000000000000000000000000000000000000000000000080
:400080000000000000000000000000000000000000000000000000000000000000000000000000000000000000000000000000000000000000000000000000000000000040
:4000C0000000000000000000000000000000000000000000000000000000000000000000000000000000000000000000000000000000000000000000000000000000000000
:0200000490501A
:0C00000000012E16106900012E26F8EEFB
:00000001FF